{
    "contractName": "Lottery",
    "abi": [
        {
            "inputs": [],
            "stateMutability": "nonpayable",
            "type": "constructor"
        },
        {
            "anonymous": false,
            "inputs": [
                {
                    "indexed": false,
                    "internalType": "uint256",
                    "name": "index",
                    "type": "uint256"
                },
                {
                    "indexed": false,
                    "internalType": "address",
                    "name": "bettor",
                    "type": "address"
                },
                {
                    "indexed": false,
                    "internalType": "uint256",
                    "name": "amount",
                    "type": "uint256"
                },
                {
                    "indexed": false,
                    "internalType": "bytes1",
                    "name": "challenges",
                    "type": "bytes1"
                },
                {
                    "indexed": false,
                    "internalType": "uint256",
                    "name": "answerBlockNumber",
                    "type": "uint256"
                }
            ],
            "name": "BET",
            "type": "event"
        },
        {
            "anonymous": false,
            "inputs": [
                {
                    "indexed": false,
                    "internalType": "uint256",
                    "name": "index",
                    "type": "uint256"
                },
                {
                    "indexed": false,
                    "internalType": "address",
                    "name": "bettor",
                    "type": "address"
                },
                {
                    "indexed": false,
                    "internalType": "uint256",
                    "name": "amount",
                    "type": "uint256"
                },
                {
                    "indexed": false,
                    "internalType": "bytes1",
                    "name": "challenges",
                    "type": "bytes1"
                },
                {
                    "indexed": false,
                    "internalType": "bytes1",
                    "name": "answer",
                    "type": "bytes1"
                },
                {
                    "indexed": false,
                    "internalType": "uint256",
                    "name": "answerBlockNumber",
                    "type": "uint256"
                }
            ],
            "name": "DRAW",
            "type": "event"
        },
        {
            "anonymous": false,
            "inputs": [
                {
                    "indexed": false,
                    "internalType": "uint256",
                    "name": "index",
                    "type": "uint256"
                },
                {
                    "indexed": false,
                    "internalType": "address",
                    "name": "bettor",
                    "type": "address"
                },
                {
                    "indexed": false,
                    "internalType": "uint256",
                    "name": "amount",
                    "type": "uint256"
                },
                {
                    "indexed": false,
                    "internalType": "bytes1",
                    "name": "challenges",
                    "type": "bytes1"
                },
                {
                    "indexed": false,
                    "internalType": "bytes1",
                    "name": "answer",
                    "type": "bytes1"
                },
                {
                    "indexed": false,
                    "internalType": "uint256",
                    "name": "answerBlockNumber",
                    "type": "uint256"
                }
            ],
            "name": "FAIL",
            "type": "event"
        },
        {
            "anonymous": false,
            "inputs": [
                {
                    "indexed": false,
                    "internalType": "uint256",
                    "name": "index",
                    "type": "uint256"
                },
                {
                    "indexed": false,
                    "internalType": "address",
                    "name": "bettor",
                    "type": "address"
                },
                {
                    "indexed": false,
                    "internalType": "uint256",
                    "name": "amount",
                    "type": "uint256"
                },
                {
                    "indexed": false,
                    "internalType": "bytes1",
                    "name": "challenges",
                    "type": "bytes1"
                },
                {
                    "indexed": false,
                    "internalType": "uint256",
                    "name": "answerBlockNumber",
                    "type": "uint256"
                }
            ],
            "name": "REFUND",
            "type": "event"
        },
        {
            "anonymous": false,
            "inputs": [
                {
                    "indexed": false,
                    "internalType": "uint256",
                    "name": "index",
                    "type": "uint256"
                },
                {
                    "indexed": false,
                    "internalType": "address",
                    "name": "bettor",
                    "type": "address"
                },
                {
                    "indexed": false,
                    "internalType": "uint256",
                    "name": "amount",
                    "type": "uint256"
                },
                {
                    "indexed": false,
                    "internalType": "bytes1",
                    "name": "challenges",
                    "type": "bytes1"
                },
                {
                    "indexed": false,
                    "internalType": "bytes1",
                    "name": "answer",
                    "type": "bytes1"
                },
                {
                    "indexed": false,
                    "internalType": "uint256",
                    "name": "answerBlockNumber",
                    "type": "uint256"
                }
            ],
            "name": "WIN",
            "type": "event"
        },
        {
            "inputs": [],
            "name": "answerForTest",
            "outputs": [
                {
                    "internalType": "bytes32",
                    "name": "",
                    "type": "bytes32"
                }
            ],
            "stateMutability": "view",
            "type": "function",
            "constant": true
        },
        {
            "inputs": [],
            "name": "owner",
            "outputs": [
                {
                    "internalType": "address payable",
                    "name": "",
                    "type": "address"
                }
            ],
            "stateMutability": "view",
            "type": "function",
            "constant": true
        },
        {
            "inputs": [
                {
                    "internalType": "bytes32",
                    "name": "_answer",
                    "type": "bytes32"
                }
            ],
            "name": "setAnswerForTest",
            "outputs": [
                {
                    "internalType": "bool",
                    "name": "result",
                    "type": "bool"
                }
            ],
            "stateMutability": "nonpayable",
            "type": "function"
        },
        {
            "inputs": [],
            "name": "getPot",
            "outputs": [
                {
                    "internalType": "uint256",
                    "name": "value",
                    "type": "uint256"
                }
            ],
            "stateMutability": "view",
            "type": "function",
            "constant": true
        },
        {
            "inputs": [
                {
                    "internalType": "bytes1",
                    "name": "challenges",
                    "type": "bytes1"
                }
            ],
            "name": "bet",
            "outputs": [
                {
                    "internalType": "bool",
                    "name": "result",
                    "type": "bool"
                }
            ],
            "stateMutability": "payable",
            "type": "function",
            "payable": true
        },
        {
            "inputs": [],
            "name": "distribute",
            "outputs": [],
            "stateMutability": "nonpayable",
            "type": "function"
        },
        {
            "inputs": [
                {
                    "internalType": "bytes1",
                    "name": "challenge",
                    "type": "bytes1"
                }
            ],
            "name": "betAndDistribute",
            "outputs": [
                {
                    "internalType": "bool",
                    "name": "result",
                    "type": "bool"
                }
            ],
            "stateMutability": "payable",
            "type": "function",
            "payable": true
        },
        {
            "inputs": [
                {
                    "internalType": "bytes1",
                    "name": "challenges",
                    "type": "bytes1"
                },
                {
                    "internalType": "bytes32",
                    "name": "answer",
                    "type": "bytes32"
                }
            ],
            "name": "isMatch",
            "outputs": [
                {
                    "internalType": "enum Lottery.BettingResult",
                    "name": "",
                    "type": "uint8"
                }
            ],
            "stateMutability": "pure",
            "type": "function",
            "constant": true
        },
        {
            "inputs": [
                {
                    "internalType": "uint256",
                    "name": "index",
                    "type": "uint256"
                }
            ],
            "name": "getBetInfo",
            "outputs": [
                {
                    "internalType": "uint256",
                    "name": "answerBlockNumber",
                    "type": "uint256"
                },
                {
                    "internalType": "address",
                    "name": "bettor",
                    "type": "address"
                },
                {
                    "internalType": "bytes1",
                    "name": "challenges",
                    "type": "bytes1"
                }
            ],
            "stateMutability": "view",
            "type": "function",
            "constant": true
        }
    ],
    "bytecode": "0x60806040526000600660006101000a81548160ff02191690831515021790555034801561002b57600080fd5b5033600360006101000a81548173ffffffffffffffffffffffffffffffffffffffff021916908373ffffffffffffffffffffffffffffffffffffffff1602179055506118308061007c6000396000f3fe6080604052600436106100865760003560e01c80638da5cb5b116100595780638da5cb5b1461015d57806399a167d714610188578063e16ea857146101c5578063e4fc6b6d146101f5578063f4b46f5b1461020c57610086565b8063403c9fa81461008b5780637009fa36146100b657806379141f80146100f357806384f7e4f014610132575b600080fd5b34801561009757600080fd5b506100a061023c565b6040516100ad9190610ff7565b60405180910390f35b3480156100c257600080fd5b506100dd60048036038101906100d8919061104d565b610246565b6040516100ea9190611095565b60405180910390f35b3480156100ff57600080fd5b5061011a600480360381019061011591906110dc565b6102e8565b60405161012993929190611185565b60405180910390f35b34801561013e57600080fd5b506101476103f1565b60405161015491906111cb565b60405180910390f35b34801561016957600080fd5b506101726103f7565b60405161017f9190611207565b60405180910390f35b34801561019457600080fd5b506101af60048036038101906101aa919061124e565b61041d565b6040516101bc9190611305565b60405180910390f35b6101df60048036038101906101da9190611320565b610706565b6040516101ec9190611095565b60405180910390f35b34801561020157600080fd5b5061020a610723565b005b61022660048036038101906102219190611320565b610b7e565b6040516102339190611095565b60405180910390f35b6000600454905090565b6000600360009054906101000a900473ffffffffffffffffffffffffffffffffffffffff1673ffffffffffffffffffffffffffffffffffffffff163373ffffffffffffffffffffffffffffffffffffffff16146102d8576040517f08c379a00000000000000000000000000000000000000000000000000000000081526004016102cf906113d0565b60405180910390fd5b8160058190555060019050919050565b600080600080600080868152602001908152602001600020604051806060016040529081600082015481526020016001820160009054906101000a900473ffffffffffffffffffffffffffffffffffffffff1673ffffffffffffffffffffffffffffffffffffffff1673ffffffffffffffffffffffffffffffffffffffff1681526020016001820160149054906101000a900460f81b7effffffffffffffffffffffffffffffffffffffffffffffffffffffffffffff19167effffffffffffffffffffffffffffffffffffffffffffffffffffffffffffff1916815250509050600381600001516103d9919061141f565b93508060200151925080604001519150509193909250565b60055481565b600360009054906101000a900473ffffffffffffffffffffffffffffffffffffffff1681565b600080839050600084905060008460006020811061043e5761043d611475565b5b1a60f81b905060008560006020811061045a57610459611475565b5b1a60f81b90506004847effffffffffffffffffffffffffffffffffffffffffffffffffffffffffffff1916901c93506004847effffffffffffffffffffffffffffffffffffffffffffffffffffffffffffff1916901b93506004827effffffffffffffffffffffffffffffffffffffffffffffffffffffffffffff1916901c91506004827effffffffffffffffffffffffffffffffffffffffffffffffffffffffffffff1916901b91506004837effffffffffffffffffffffffffffffffffffffffffffffffffffffffffffff1916901b92506004837effffffffffffffffffffffffffffffffffffffffffffffffffffffffffffff1916901c92506004817effffffffffffffffffffffffffffffffffffffffffffffffffffffffffffff1916901b90506004817effffffffffffffffffffffffffffffffffffffffffffffffffffffffffffff1916901c9050837effffffffffffffffffffffffffffffffffffffffffffffffffffffffffffff1916827effffffffffffffffffffffffffffffffffffffffffffffffffffffffffffff191614801561063e5750827effffffffffffffffffffffffffffffffffffffffffffffffffffffffffffff1916817effffffffffffffffffffffffffffffffffffffffffffffffffffffffffffff1916145b15610650576001945050505050610700565b837effffffffffffffffffffffffffffffffffffffffffffffffffffffffffffff1916827effffffffffffffffffffffffffffffffffffffffffffffffffffffffffffff191614806106e55750827effffffffffffffffffffffffffffffffffffffffffffffffffffffffffffff1916817effffffffffffffffffffffffffffffffffffffffffffffffffffffffffffff1916145b156106f7576002945050505050610700565b60009450505050505b92915050565b600061071182610b7e565b5061071a610723565b60019050919050565b60008061072e610f85565b60008060025494505b6001548511610b7057600080868152602001908152602001600020604051806060016040529081600082015481526020016001820160009054906101000a900473ffffffffffffffffffffffffffffffffffffffff1673ffffffffffffffffffffffffffffffffffffffff1673ffffffffffffffffffffffffffffffffffffffff1681526020016001820160149054906101000a900460f81b7effffffffffffffffffffffffffffffffffffffffffffffffffffffffffffff19167effffffffffffffffffffffffffffffffffffffffffffffffffffffffffffff191681525050925060006108298460000151610c72565b90506108388460000151610c9a565b92506000600281111561084e5761084d61128e565b5b8360028111156108615761086061128e565b5b03610a915761087484604001518261041d565b91506001600281111561088a5761088961128e565b5b82600281111561089d5761089c61128e565b5b03610933576108c484602001516611c37937e080006004546108bf919061141f565b610cfc565b945060006004819055507f8219079e2d6c1192fb0ff7f78e6faaf5528ad6687e69749205d87bd4b156912b8685602001518787604001518560006020811061090f5761090e611475565b5b1a60f81b896000015160405161092a96959493929190611503565b60405180910390a15b600060028111156109475761094661128e565b5b82600281111561095a5761095961128e565b5b036109e5576611c37937e0800060046000828254610978919061141f565b925050819055507f3b19d607433249d2ebc766ae82ca3848e9c064f1febb5147bc6e5b21d0adebc586856020015160008760400151856000602081106109c1576109c0611475565b5b1a60f81b89600001516040516109dc9695949392919061159f565b60405180910390a15b6002808111156109f8576109f761128e565b5b826002811115610a0b57610a0a61128e565b5b03610a8c57610a2584602001516611c37937e08000610cfc565b94507f3b19d607433249d2ebc766ae82ca3848e9c064f1febb5147bc6e5b21d0adebc586856020015187876040015185600060208110610a6857610a67611475565b5b1a60f81b8960000151604051610a8396959493929190611503565b60405180910390a15b610b52565b60016002811115610aa557610aa461128e565b5b836002811115610ab857610ab761128e565b5b03610ac35750610b70565b600280811115610ad657610ad561128e565b5b836002811115610ae957610ae861128e565b5b03610b5157610b0384602001516611c37937e08000610cfc565b94507f59c0185881271a0f53d43e6ab9310091408f9e0ff9ae2512613de800f26b8de48685602001518787604001518860000151604051610b48959493929190611600565b60405180910390a15b5b610b5b86610dce565b50508480610b6890611653565b955050610737565b846002819055505050505050565b60006611c37937e080003414610bc9576040517f08c379a0000000000000000000000000000000000000000000000000000000008152600401610bc0906116e7565b60405180910390fd5b610bd282610e31565b610c11576040517f08c379a0000000000000000000000000000000000000000000000000000000008152600401610c0890611753565b60405180910390fd5b7f100791de9f40bf2d56ffa6dc5597d2fd0b2703ea70bc7548cd74c04f5d215ab760018054610c409190611773565b333485600343610c50919061141f565b604051610c619594939291906117a7565b60405180910390a160019050919050565b6000600660009054906101000a900460ff16610c9057600554610c93565b81405b9050919050565b60008143118015610cb7575061010082610cb4919061141f565b43105b15610cc55760009050610cf7565b814311610cd55760019050610cf7565b61010082610ce3919061141f565b4310610cf25760029050610cf7565b600290505b919050565b6000806000905060008184610d119190611773565b90508473ffffffffffffffffffffffffffffffffffffffff166108fc829081150290604051600060405180830381858888f19350505050158015610d59573d6000803e3d6000fd5b50600360009054906101000a900473ffffffffffffffffffffffffffffffffffffffff1673ffffffffffffffffffffffffffffffffffffffff166108fc839081150290604051600060405180830381858888f19350505050158015610dc2573d6000803e3d6000fd5b50809250505092915050565b60008060008381526020019081526020016000206000808201600090556001820160006101000a81549073ffffffffffffffffffffffffffffffffffffffff02191690556001820160146101000a81549060ff0219169055505060019050919050565b6000610e3b610f85565b33816020019073ffffffffffffffffffffffffffffffffffffffff16908173ffffffffffffffffffffffffffffffffffffffff1681525050600343610e80919061141f565b8160000181815250508281604001907effffffffffffffffffffffffffffffffffffffffffffffffffffffffffffff191690817effffffffffffffffffffffffffffffffffffffffffffffffffffffffffffff1916815250508060008060015481526020019081526020016000206000820151816000015560208201518160010160006101000a81548173ffffffffffffffffffffffffffffffffffffffff021916908373ffffffffffffffffffffffffffffffffffffffff16021790555060408201518160010160146101000a81548160ff021916908360f81c021790555090505060016000815480929190610f7690611653565b91905055506001915050919050565b604051806060016040528060008152602001600073ffffffffffffffffffffffffffffffffffffffff16815260200160007effffffffffffffffffffffffffffffffffffffffffffffffffffffffffffff191681525090565b6000819050919050565b610ff181610fde565b82525050565b600060208201905061100c6000830184610fe8565b92915050565b600080fd5b6000819050919050565b61102a81611017565b811461103557600080fd5b50565b60008135905061104781611021565b92915050565b60006020828403121561106357611062611012565b5b600061107184828501611038565b91505092915050565b60008115159050919050565b61108f8161107a565b82525050565b60006020820190506110aa6000830184611086565b92915050565b6110b981610fde565b81146110c457600080fd5b50565b6000813590506110d6816110b0565b92915050565b6000602082840312156110f2576110f1611012565b5b6000611100848285016110c7565b91505092915050565b600073ffffffffffffffffffffffffffffffffffffffff82169050919050565b600061113482611109565b9050919050565b61114481611129565b82525050565b60007fff0000000000000000000000000000000000000000000000000000000000000082169050919050565b61117f8161114a565b82525050565b600060608201905061119a6000830186610fe8565b6111a7602083018561113b565b6111b46040830184611176565b949350505050565b6111c581611017565b82525050565b60006020820190506111e060008301846111bc565b92915050565b60006111f182611109565b9050919050565b611201816111e6565b82525050565b600060208201905061121c60008301846111f8565b92915050565b61122b8161114a565b811461123657600080fd5b50565b60008135905061124881611222565b92915050565b6000806040838503121561126557611264611012565b5b600061127385828601611239565b925050602061128485828601611038565b9150509250929050565b7f4e487b7100000000000000000000000000000000000000000000000000000000600052602160045260246000fd5b600381106112ce576112cd61128e565b5b50565b60008190506112df826112bd565b919050565b60006112ef826112d1565b9050919050565b6112ff816112e4565b82525050565b600060208201905061131a60008301846112f6565b92915050565b60006020828403121561133657611335611012565b5b600061134484828501611239565b91505092915050565b600082825260208201905092915050565b7f4f6e6c79206f6e7765722063616e207365742074686520616e7377657220666f60008201527f722074657374206d6f6465000000000000000000000000000000000000000000602082015250565b60006113ba602b8361134d565b91506113c58261135e565b604082019050919050565b600060208201905081810360008301526113e9816113ad565b9050919050565b7f4e487b7100000000000000000000000000000000000000000000000000000000600052601160045260246000fd5b600061142a82610fde565b915061143583610fde565b9250827fffffffffffffffffffffffffffffffffffffffffffffffffffffffffffffffff0382111561146a576114696113f0565b5b828201905092915050565b7f4e487b7100000000000000000000000000000000000000000000000000000000600052603260045260246000fd5b6000819050919050565b60006114c96114c46114bf84611109565b6114a4565b611109565b9050919050565b60006114db826114ae565b9050919050565b60006114ed826114d0565b9050919050565b6114fd816114e2565b82525050565b600060c0820190506115186000830189610fe8565b61152560208301886114f4565b6115326040830187610fe8565b61153f6060830186611176565b61154c6080830185611176565b61155960a0830184610fe8565b979650505050505050565b6000819050919050565b600061158961158461157f84611564565b6114a4565b610fde565b9050919050565b6115998161156e565b82525050565b600060c0820190506115b46000830189610fe8565b6115c160208301886114f4565b6115ce6040830187611590565b6115db6060830186611176565b6115e86080830185611176565b6115f560a0830184610fe8565b979650505050505050565b600060a0820190506116156000830188610fe8565b61162260208301876114f4565b61162f6040830186610fe8565b61163c6060830185611176565b6116496080830184610fe8565b9695505050505050565b600061165e82610fde565b91507fffffffffffffffffffffffffffffffffffffffffffffffffffffffffffffffff82036116905761168f6113f0565b5b600182019050919050565b7f42657420616d6f756e742073686f756c6420626520302e303035204554480000600082015250565b60006116d1601e8361134d565b91506116dc8261169b565b602082019050919050565b60006020820190508181036000830152611700816116c4565b9050919050565b7f4661696c656420746f206164642061206e65772042657420496e666f00000000600082015250565b600061173d601c8361134d565b915061174882611707565b602082019050919050565b6000602082019050818103600083015261176c81611730565b9050919050565b600061177e82610fde565b915061178983610fde565b92508282101561179c5761179b6113f0565b5b828203905092915050565b600060a0820190506117bc6000830188610fe8565b6117c9602083018761113b565b6117d66040830186610fe8565b6117e36060830185611176565b6117f06080830184610fe8565b969550505050505056fea26469706673582212206fe23ad69635e9c4aa661967a92235257a85f823fa8a9333a41fe7bacd30c9f364736f6c634300080f0033",
    "immutableReferences": {},
    "source": "// SPDX-License-Identifier: GPL-3.0\n\npragma solidity >=0.4.22 <0.9.0;\n\ncontract Lottery {\n\n    struct BetInfo {\n        //    3  tx answerBlockNumber 6\n        uint256 answerBlockNumber;\n        address payable bettor;\n        bytes1 challenges;\n    }\n\n    mapping(uint256 => BetInfo) private _bets;\n\n    uint256 private _tail;\n    uint256 private _head;\n    address payable public owner;\n    \n    uint256 private _pot;\n    uint256 constant internal BET_AMOUNT = 0.005 ether;\n    uint256 constant internal BET_BLOCK_INTERVAL = 3;\n    uint256 constant internal BLOCK_LIMIT = 256;\n    bytes32 public answerForTest;\n    bool private mode = false; // false: test, true: real mode(real blockhash)\n\n    function setAnswerForTest(bytes32 _answer) public returns (bool result) {\n        require(msg.sender == owner, \"Only onwer can set the answer for test mode\");\n        answerForTest = _answer;\n        return true;\n    }\n\n\n    enum BlockStatus {\n        Checkable,\n        NotRevealed,\n        BlockLimitPassed\n    }\n\n    enum BettingResult {\n        Fail,\n        Win,\n        Draw\n    }\n\n    event BET(uint256 index, address bettor, uint256 amount, bytes1 challenges, uint256 answerBlockNumber);\n    event WIN(uint256 index, address bettor, uint256 amount, bytes1 challenges, bytes1 answer, uint256 answerBlockNumber);\n    event FAIL(uint256 index, address bettor, uint256 amount, bytes1 challenges, bytes1 answer, uint256 answerBlockNumber);\n    event DRAW(uint256 index, address bettor, uint256 amount, bytes1 challenges, bytes1 answer, uint256 answerBlockNumber);\n    event REFUND(uint256 index, address bettor, uint256 amount, bytes1 challenges, uint256 answerBlockNumber);\n\n    constructor() {\n        owner = payable(msg.sender);\n    }\n\n    function getPot() public view returns (uint256 value) {\n        return _pot;\n    }\n\n    // Bet\n    /**\n     * @dev  .  0.005 ETH ,  1 byte  .\n     *      distribute  .\n     * @param challenges  1byte \n     * @return result     bool\n     */\n    function bet(bytes1 challenges) public payable returns (bool result) {\n        // check the value is send properly. \n        require(msg.value == BET_AMOUNT, \"Bet amount should be 0.005 ETH\");\n\n        // push bet to the queue\n        require(pushBet(challenges), \"Failed to add a new Bet Info\");\n\n        // emit event\n        emit BET(_tail - 1, msg.sender, msg.value, challenges, block.number + BET_BLOCK_INTERVAL);        \n        return true;\n    }\n\n    // Distribute () \n    // check the answer\n    /**\n     * @dev     .\n     * :  , :  ,  or  : \n     */\n    function distribute() public {\n        // queue    3(head),4,5,6,7,8,9,10(tail) \n        // 3   , , pop\n        // 4   , , pop\n        // ... 10   , , Pop\n        uint256 cur;\n        uint256 transferAmount;\n        BetInfo memory b;\n        BlockStatus currentBlockStatus;\n        BettingResult currentBettingResult;\n\n        for (cur = _head; cur <= _tail; cur++) {\n\n            //   \n            b = _bets[cur];\n            bytes32 answerBlockHash = getAnswerBlockHash(b.answerBlockNumber);\n            currentBlockStatus = getBlockStatus(b.answerBlockNumber);\n            // 1. checkable :  256 ,   \n            //    block.number > b.answerBlockNumber ->  block hash  \n            //    && block.number < b.answerBlockNumber + BLOCK_LIMIT\n            if (currentBlockStatus == BlockStatus.Checkable) {\n                currentBettingResult = isMatch(b.challenges, answerBlockHash);\n                // win - bettor gets pot\n                if (currentBettingResult == BettingResult.Win) {\n                    // transfer pot;\n                    transferAmount = transferAfterPayingFee(b.bettor, _pot + BET_AMOUNT);\n                    // pot = 0;\n                    _pot = 0;\n                    // emit event Win\n                    emit WIN(cur, b.bettor, transferAmount, b.challenges, answerBlockHash[0], b.answerBlockNumber);\n                }\n                // fail - bettor's money goes to pot\n                if (currentBettingResult == BettingResult.Fail) {\n                    // pot += betAmount;\n                    _pot += BET_AMOUNT;\n                    \n                    // emit event Fail\n                    emit FAIL(cur, b.bettor, 0, b.challenges, answerBlockHash[0], b.answerBlockNumber);\n                }\n\n                // draw - bettor's money will be refund\n                if (currentBettingResult == BettingResult.Draw) {\n                    // transfer only betAmount\n                    transferAmount = transferAfterPayingFee(b.bettor, BET_AMOUNT);\n                    // emit event Draw\n                    emit FAIL(cur, b.bettor, transferAmount, b.challenges, answerBlockHash[0], b.answerBlockNumber);\n                }\n            } else if (currentBlockStatus == BlockStatus.NotRevealed) {\n            // 2. not revealed :     \n            //    block.number <= b.answerBlockNumber\n                break;\n            } else if (currentBlockStatus == BlockStatus.BlockLimitPassed) {\n            // 3. block limit passed\n            //    block.number >= b.answerBlockNumber + BLOCK_LIMIT\n                // \n                // emit refund\n                transferAmount = transferAfterPayingFee(b.bettor, BET_AMOUNT);\n                emit REFUND(cur, b.bettor, transferAmount, b.challenges, b.answerBlockNumber);\n            }\n\n           \n\n            \n            popBet(cur);\n        }\n\n        _head = cur;\n    }\n    \n    /**\n     * @dev   .\n     * @param challenge   \n     * @return result   \n     */\n    function betAndDistribute(bytes1 challenge) public payable returns (bool result) {\n        bet(challenge);\n\n        distribute();\n\n        return true;\n    }\n\n    function getAnswerBlockHash(uint256 answerBlockNumber) internal view returns (bytes32 answer) {\n        return mode ? blockhash(answerBlockNumber) : answerForTest;\n    }\n\n    /**\n     * @dev   \n     * @param challenges  \n     * @param answer  \n     * @return BettingResult   \n     */\n    function isMatch(bytes1 challenges, bytes32 answer) public pure returns (BettingResult) {\n        // challenges 0xab\n        // answer 0xab.....ff 32bytes\n\n        bytes1 c1 = challenges;\n        bytes1 c2 = challenges;\n        bytes1 a1 = answer[0];\n        bytes1 a2 = answer[0];\n\n        //   \n        c1 = c1 >> 4; // 0xab -> 0x0a\n        c1 = c1 << 4; // 0x0a -> 0xa0\n\n        a1 = a1 >> 4;\n        a1 = a1 << 4;\n\n        //   \n        c2 = c2 << 4; // 0xab -> 0xb0\n        c2 = c2 >> 4; // 0xb0 -> 0x0b\n\n        a2 = a2 << 4;\n        a2 = a2 >> 4;\n\n        if (a1 == c1 && a2 == c2) {\n            return BettingResult.Win;\n        } \n        \n        if (a1 == c1 || a2 == c2) {\n            return BettingResult.Draw;\n        }\n\n        return BettingResult.Fail;\n    }\n\n    function getBlockStatus(uint256 answerBlockNumber) internal view returns (BlockStatus) {\n        if (block.number > answerBlockNumber && block.number < answerBlockNumber + BLOCK_LIMIT) {\n            return BlockStatus.Checkable;\n        }\n        \n        if (block.number <= answerBlockNumber) {\n            return BlockStatus.NotRevealed;\n        } \n        if (block.number >= answerBlockNumber + BLOCK_LIMIT) {\n            return BlockStatus.BlockLimitPassed;\n        }\n\n        //   \n        return BlockStatus.BlockLimitPassed;\n    }\n\n    function getBetInfo(uint256 index) public view returns(uint256 answerBlockNumber, address bettor, bytes1 challenges) {\n        BetInfo memory b = _bets[index];\n        answerBlockNumber = b.answerBlockNumber + BET_BLOCK_INTERVAL;\n        bettor = b.bettor;\n        challenges = b.challenges;\n    }\n\n    function pushBet(bytes1 challenges) internal returns (bool) {\n        BetInfo memory b;\n        b.bettor = payable(msg.sender);\n        b.answerBlockNumber = block.number + BET_BLOCK_INTERVAL;\n        b.challenges = challenges;\n\n        _bets[_tail] = b;\n        _tail++;\n\n        return true;\n    }\n\n    function popBet(uint256 index) internal returns (bool) {\n        delete _bets[index];\n        return true;\n    }\n\n    function transferAfterPayingFee(address payable addr, uint256 amount) internal returns (uint256) {\n        // uint256 fee = amount / 100;\n        uint256 fee = 0;\n        uint256 amountWithoutFee = amount - fee;\n\n        // transfer to address\n        addr.transfer(amountWithoutFee);\n        // transfer to owner\n        owner.transfer(fee);\n\n        return amountWithoutFee;\n    }\n}",
    "sourcePath": "/Users/jy/Desktop/study/blockchain/lottery-smart-contract/contracts/Lottery.sol",
    "compiler": {
        "name": "solc",
        "version": "0.8.15+commit.e14f2714.Emscripten.clang"
    },
    "schemaVersion": "3.4.8",
    "updatedAt": "2022-08-06T07:38:48.750Z",
    "networkType": "ethereum",
    "devdoc": {
        "kind": "dev",
        "methods": {
            "bet(bytes1)": {
                "details": " .  0.005 ETH ,  1 byte  .      distribute  .",
                "params": {
                    "challenges": " 1byte "
                },
                "returns": {
                    "result": "    bool"
                }
            },
            "betAndDistribute(bytes1)": {
                "details": "  .",
                "params": {
                    "challenge": "  "
                },
                "returns": {
                    "result": "  "
                }
            },
            "distribute()": {
                "details": "    . :  , :  ,  or  : "
            },
            "isMatch(bytes1,bytes32)": {
                "details": "  ",
                "params": {
                    "answer": " ",
                    "challenges": " "
                },
                "returns": {
                    "_0": "BettingResult   "
                }
            }
        },
        "version": 1
    },
    "userdoc": {
        "kind": "user",
        "methods": {},
        "version": 1
    }
}